{
  "contractName": "Poll",
  "abi": [
    {
      "inputs": [
        {
          "internalType": "uint256",
          "name": "",
          "type": "uint256"
        }
      ],
      "name": "polls",
      "outputs": [
        {
          "internalType": "string",
          "name": "question",
          "type": "string"
        },
        {
          "internalType": "uint256",
          "name": "pollid",
          "type": "uint256"
        }
      ],
      "stateMutability": "view",
      "type": "function"
    },
    {
      "inputs": [
        {
          "internalType": "string",
          "name": "QUESTION",
          "type": "string"
        },
        {
          "internalType": "string[]",
          "name": "OPTIONS",
          "type": "string[]"
        }
      ],
      "name": "createPoll",
      "outputs": [],
      "stateMutability": "nonpayable",
      "type": "function"
    }
  ],
  "bytecode": "0x608060405234801561000f575f80fd5b506109138061001d5f395ff3fe608060405234801561000f575f80fd5b5060043610610034575f3560e01c80637e3d71c314610038578063ac2f007414610054575b5f80fd5b610052600480360381019061004d9190610489565b610085565b005b61006e60048036038101906100699190610532565b6100d4565b60405161007c9291906105e6565b60405180910390f35b5f8060018160018154018082558091505003905f5260205f209060030201905082815f0190816100b5919061080e565b50818160010190805190602001906100ce929190610188565b50505050565b5f81815481106100e2575f80fd5b905f5260205f2090600302015f91509050805f01805461010190610641565b80601f016020809104026020016040519081016040528092919081815260200182805461012d90610641565b80156101785780601f1061014f57610100808354040283529160200191610178565b820191905f5260205f20905b81548152906001019060200180831161015b57829003601f168201915b5050505050908060020154905082565b828054828255905f5260205f209081019282156101ce579160200282015b828111156101cd5782518290816101bd919061080e565b50916020019190600101906101a6565b5b5090506101db91906101df565b5090565b5b808211156101fe575f81816101f59190610202565b506001016101e0565b5090565b50805461020e90610641565b5f825580601f1061021f575061023c565b601f0160209004905f5260205f209081019061023b919061023f565b5b50565b5b80821115610256575f815f905550600101610240565b5090565b5f604051905090565b5f80fd5b5f80fd5b5f80fd5b5f80fd5b5f601f19601f8301169050919050565b7f4e487b71000000000000000000000000000000000000000000000000000000005f52604160045260245ffd5b6102b982610273565b810181811067ffffffffffffffff821117156102d8576102d7610283565b5b80604052505050565b5f6102ea61025a565b90506102f682826102b0565b919050565b5f67ffffffffffffffff82111561031557610314610283565b5b61031e82610273565b9050602081019050919050565b828183375f83830152505050565b5f61034b610346846102fb565b6102e1565b9050828152602081018484840111156103675761036661026f565b5b61037284828561032b565b509392505050565b5f82601f83011261038e5761038d61026b565b5b813561039e848260208601610339565b91505092915050565b5f67ffffffffffffffff8211156103c1576103c0610283565b5b602082029050602081019050919050565b5f80fd5b5f6103e86103e3846103a7565b6102e1565b9050808382526020820190506020840283018581111561040b5761040a6103d2565b5b835b8181101561045257803567ffffffffffffffff8111156104305761042f61026b565b5b80860161043d898261037a565b8552602085019450505060208101905061040d565b5050509392505050565b5f82601f8301126104705761046f61026b565b5b81356104808482602086016103d6565b91505092915050565b5f806040838503121561049f5761049e610263565b5b5f83013567ffffffffffffffff8111156104bc576104bb610267565b5b6104c88582860161037a565b925050602083013567ffffffffffffffff8111156104e9576104e8610267565b5b6104f58582860161045c565b9150509250929050565b5f819050919050565b610511816104ff565b811461051b575f80fd5b50565b5f8135905061052c81610508565b92915050565b5f6020828403121561054757610546610263565b5b5f6105548482850161051e565b91505092915050565b5f81519050919050565b5f82825260208201905092915050565b5f5b83811015610594578082015181840152602081019050610579565b5f8484015250505050565b5f6105a98261055d565b6105b38185610567565b93506105c3818560208601610577565b6105cc81610273565b840191505092915050565b6105e0816104ff565b82525050565b5f6040820190508181035f8301526105fe818561059f565b905061060d60208301846105d7565b9392505050565b7f4e487b71000000000000000000000000000000000000000000000000000000005f52602260045260245ffd5b5f600282049050600182168061065857607f821691505b60208210810361066b5761066a610614565b5b50919050565b5f819050815f5260205f209050919050565b5f6020601f8301049050919050565b5f82821b905092915050565b5f600883026106cd7fffffffffffffffffffffffffffffffffffffffffffffffffffffffffffffffff82610692565b6106d78683610692565b95508019841693508086168417925050509392505050565b5f819050919050565b5f61071261070d610708846104ff565b6106ef565b6104ff565b9050919050565b5f819050919050565b61072b836106f8565b61073f61073782610719565b84845461069e565b825550505050565b5f90565b610753610747565b61075e818484610722565b505050565b5b81811015610781576107765f8261074b565b600181019050610764565b5050565b601f8211156107c65761079781610671565b6107a084610683565b810160208510156107af578190505b6107c36107bb85610683565b830182610763565b50505b505050565b5f82821c905092915050565b5f6107e65f19846008026107cb565b1980831691505092915050565b5f6107fe83836107d7565b9150826002028217905092915050565b6108178261055d565b67ffffffffffffffff8111156108305761082f610283565b5b61083a8254610641565b610845828285610785565b5f60209050601f831160018114610876575f8415610864578287015190505b61086e85826107f3565b8655506108d5565b601f19841661088486610671565b5f5b828110156108ab57848901518255600182019150602085019450602081019050610886565b868310156108c857848901516108c4601f8916826107d7565b8355505b6001600288020188555050505b50505050505056fea26469706673582212200bfb622c38109a05609fb6626a5552af67f690dd2240f1cf63bd0d1d22cfd39e64736f6c63430008150033",
  "immutableReferences": {},
  "source": "pragma solidity ^0.8.0;\r\n\r\n   \r\ncontract Poll {\r\n    struct polldata {\r\n        string question;\r\n        string[] options;\r\n        uint256 pollid;\r\n    }\r\n    polldata[] public polls;\r\n\r\n    function createPoll(string memory QUESTION, string[] memory OPTIONS) public {\r\n         polldata storage newpoll = polls.push();\r\n        newpoll.question = QUESTION;\r\n        newpoll.options = OPTIONS;\r\n    }\r\n}",
  "sourcePath": "C:\\Users\\Ashutosh PC\\teenytiny\\new teenytiny\\Teenytiny_project\\blockchain\\contracts\\poll.sol",
  "compiler": {
    "name": "solc",
    "version": "0.8.21+commit.d9974bed.Emscripten.clang"
  },
  "schemaVersion": "3.4.16",
  "updatedAt": "2024-07-16T06:48:53.520Z",
  "devdoc": {
    "kind": "dev",
    "methods": {},
    "version": 1
  },
  "userdoc": {
    "kind": "user",
    "methods": {},
    "version": 1
  }
}